{
  "contractName": "Voting",
  "abi": [
    {
      "inputs": [],
      "stateMutability": "nonpayable",
      "type": "constructor"
    },
    {
      "anonymous": false,
      "inputs": [
        {
          "indexed": true,
          "internalType": "address",
          "name": "previousOwner",
          "type": "address"
        },
        {
          "indexed": true,
          "internalType": "address",
          "name": "newOwner",
          "type": "address"
        }
      ],
      "name": "OwnershipTransferred",
      "type": "event"
    },
    {
      "anonymous": false,
      "inputs": [
        {
          "indexed": false,
          "internalType": "uint256",
          "name": "proposalId",
          "type": "uint256"
        }
      ],
      "name": "ProposalRegistered",
      "type": "event"
    },
    {
      "anonymous": false,
      "inputs": [
        {
          "indexed": false,
          "internalType": "address",
          "name": "voter",
          "type": "address"
        },
        {
          "indexed": false,
          "internalType": "uint256",
          "name": "proposalId",
          "type": "uint256"
        }
      ],
      "name": "Voted",
      "type": "event"
    },
    {
      "anonymous": false,
      "inputs": [
        {
          "indexed": false,
          "internalType": "address",
          "name": "voterAddress",
          "type": "address"
        }
      ],
      "name": "VoterRegistered",
      "type": "event"
    },
    {
      "anonymous": false,
      "inputs": [
        {
          "indexed": false,
          "internalType": "enum Voting.WorkflowStatus",
          "name": "previousStatus",
          "type": "uint8"
        },
        {
          "indexed": false,
          "internalType": "enum Voting.WorkflowStatus",
          "name": "newStatus",
          "type": "uint8"
        }
      ],
      "name": "WorkflowStatusChange",
      "type": "event"
    },
    {
      "inputs": [],
      "name": "owner",
      "outputs": [
        {
          "internalType": "address",
          "name": "",
          "type": "address"
        }
      ],
      "stateMutability": "view",
      "type": "function",
      "constant": true
    },
    {
      "inputs": [],
      "name": "renounceOwnership",
      "outputs": [],
      "stateMutability": "nonpayable",
      "type": "function"
    },
    {
      "inputs": [],
      "name": "state",
      "outputs": [
        {
          "internalType": "enum Voting.WorkflowStatus",
          "name": "",
          "type": "uint8"
        }
      ],
      "stateMutability": "view",
      "type": "function",
      "constant": true
    },
    {
      "inputs": [
        {
          "internalType": "address",
          "name": "newOwner",
          "type": "address"
        }
      ],
      "name": "transferOwnership",
      "outputs": [],
      "stateMutability": "nonpayable",
      "type": "function"
    },
    {
      "inputs": [
        {
          "internalType": "address",
          "name": "",
          "type": "address"
        }
      ],
      "name": "whitelist",
      "outputs": [
        {
          "internalType": "bool",
          "name": "isRegistered",
          "type": "bool"
        },
        {
          "internalType": "bool",
          "name": "hasVoted",
          "type": "bool"
        },
        {
          "internalType": "uint256",
          "name": "votedProposalId",
          "type": "uint256"
        },
        {
          "internalType": "uint256",
          "name": "sentProposal",
          "type": "uint256"
        }
      ],
      "stateMutability": "view",
      "type": "function",
      "constant": true
    },
    {
      "inputs": [
        {
          "internalType": "address",
          "name": "_address",
          "type": "address"
        }
      ],
      "name": "authorize",
      "outputs": [],
      "stateMutability": "nonpayable",
      "type": "function"
    },
    {
      "inputs": [],
      "name": "changeStatus",
      "outputs": [],
      "stateMutability": "nonpayable",
      "type": "function"
    },
    {
      "inputs": [
        {
          "internalType": "string",
          "name": "_proposal",
          "type": "string"
        }
      ],
      "name": "sendProposals",
      "outputs": [],
      "stateMutability": "nonpayable",
      "type": "function"
    },
    {
      "inputs": [
        {
          "internalType": "uint256",
          "name": "_proposalId",
          "type": "uint256"
        }
      ],
      "name": "voteForProposal",
      "outputs": [],
      "stateMutability": "nonpayable",
      "type": "function"
    },
    {
      "inputs": [],
      "name": "getAllProposals",
      "outputs": [
        {
          "components": [
            {
              "internalType": "string",
              "name": "description",
              "type": "string"
            },
            {
              "internalType": "uint256",
              "name": "voteCount",
              "type": "uint256"
            }
          ],
          "internalType": "struct Voting.Proposal[]",
          "name": "",
          "type": "tuple[]"
        }
      ],
      "stateMutability": "view",
      "type": "function",
      "constant": true
    },
    {
      "inputs": [
        {
          "internalType": "uint256",
          "name": "_proposalId",
          "type": "uint256"
        }
      ],
      "name": "getProposalByIndex",
      "outputs": [
        {
          "internalType": "string",
          "name": "",
          "type": "string"
        }
      ],
      "stateMutability": "view",
      "type": "function",
      "constant": true
    },
    {
      "inputs": [
        {
          "internalType": "uint256",
          "name": "_proposalId",
          "type": "uint256"
        }
      ],
      "name": "getVoteCountByProposal",
      "outputs": [
        {
          "internalType": "uint256",
          "name": "",
          "type": "uint256"
        }
      ],
      "stateMutability": "view",
      "type": "function",
      "constant": true
    },
    {
      "inputs": [],
      "name": "getTotalOfVotes",
      "outputs": [
        {
          "internalType": "uint256",
          "name": "",
          "type": "uint256"
        }
      ],
      "stateMutability": "view",
      "type": "function",
      "constant": true
    },
    {
      "inputs": [],
      "name": "getWinner",
      "outputs": [
        {
          "internalType": "uint256",
          "name": "",
          "type": "uint256"
        }
      ],
      "stateMutability": "view",
      "type": "function",
      "constant": true
    },
    {
      "inputs": [
        {
          "internalType": "address",
          "name": "_address",
          "type": "address"
        }
      ],
      "name": "hasVotedFor",
      "outputs": [
        {
          "internalType": "uint256",
          "name": "",
          "type": "uint256"
        },
        {
          "internalType": "string",
          "name": "",
          "type": "string"
        }
      ],
      "stateMutability": "view",
      "type": "function",
      "constant": true
    }
  ],
  "bytecode": "0x60806040523480156200001157600080fd5b5062000032620000266200009360201b60201c565b6200009b60201b60201c565b6001600260003373ffffffffffffffffffffffffffffffffffffffff1673ffffffffffffffffffffffffffffffffffffffff16815260200190815260200160002060000160006101000a81548160ff0219169083151502179055506200015f565b600033905090565b60008060009054906101000a900473ffffffffffffffffffffffffffffffffffffffff169050816000806101000a81548173ffffffffffffffffffffffffffffffffffffffff021916908373ffffffffffffffffffffffffffffffffffffffff1602179055508173ffffffffffffffffffffffffffffffffffffffff168173ffffffffffffffffffffffffffffffffffffffff167f8be0079c531659141344cd1fd0a4f28419497f9722a3daafe3b4186f6b6457e060405160405180910390a35050565b612eaf806200016f6000396000f3fe608060405234801561001057600080fd5b50600436106100f55760003560e01c80638da5cb5b11610097578063c19d93fb11610066578063c19d93fb14610264578063cceb68f514610282578063d1d8afe4146102a0578063f2fde38b146102bc576100f5565b80638da5cb5b146101d95780638e7ea5b2146101f75780639b19251a14610215578063b6a5d7de14610248576100f5565b806337d1d389116100d357806337d1d38914610150578063715018a61461018057806377b446d11461018a57806378b80e36146101bb576100f5565b8063045c6ce0146100fa578063085634ec1461011657806311cf8bfb14610120575b600080fd5b610114600480360381019061010f9190611a71565b6102d8565b005b61011e6105cf565b005b61013a60048036038101906101359190611a71565b610819565b6040516101479190611aad565b60405180910390f35b61016a60048036038101906101659190611a71565b610968565b6040516101779190611b58565b60405180910390f35b610188610b3f565b005b6101a4600480360381019061019f9190611bd8565b610b53565b6040516101b2929190611c05565b60405180910390f35b6101c3610e43565b6040516101d09190611aad565b60405180910390f35b6101e1610fb7565b6040516101ee9190611c44565b60405180910390f35b6101ff610fe0565b60405161020c9190611aad565b60405180910390f35b61022f600480360381019061022a9190611bd8565b61119e565b60405161023f9493929190611c7a565b60405180910390f35b610262600480360381019061025d9190611bd8565b6111e8565b005b61026c61138b565b6040516102799190611d36565b60405180910390f35b61028a61139e565b6040516102979190611ea9565b60405180910390f35b6102ba60048036038101906102b59190611f30565b611570565b005b6102d660048036038101906102d19190611bd8565b61184a565b005b600260003373ffffffffffffffffffffffffffffffffffffffff1673ffffffffffffffffffffffffffffffffffffffff16815260200190815260200160002060000160009054906101000a900460ff16610367576040517f08c379a000000000000000000000000000000000000000000000000000000000815260040161035e90612015565b60405180910390fd5b8060018054905081106103af576040517f08c379a00000000000000000000000000000000000000000000000000000000081526004016103a6906120f3565b60405180910390fd5b600360058111156103c3576103c2611cbf565b5b600360009054906101000a900460ff1660058111156103e5576103e4611cbf565b5b14610425576040517f08c379a000000000000000000000000000000000000000000000000000000000815260040161041c90612185565b60405180910390fd5b600260003373ffffffffffffffffffffffffffffffffffffffff1673ffffffffffffffffffffffffffffffffffffffff16815260200190815260200160002060000160019054906101000a900460ff16156104b5576040517f08c379a00000000000000000000000000000000000000000000000000000000081526004016104ac90612217565b60405180910390fd5b600182815481106104c9576104c8612237565b5b906000526020600020906002020160010160008154809291906104eb90612295565b91905055506001600260003373ffffffffffffffffffffffffffffffffffffffff1673ffffffffffffffffffffffffffffffffffffffff16815260200190815260200160002060000160016101000a81548160ff02191690831515021790555081600260003373ffffffffffffffffffffffffffffffffffffffff1673ffffffffffffffffffffffffffffffffffffffff168152602001908152602001600020600101819055507f4d99b957a2bc29a30ebd96a7be8e68fe50a3c701db28a91436490b7d53870ca433836040516105c39291906122dd565b60405180910390a15050565b6105d76118cd565b6003600181819054906101000a900460ff16809291906105f690612313565b91906101000a81548160ff021916908360ff160217905550506002600360019054906101000a900460ff1660ff1614801561063657506002600180549050105b15610676576040517f08c379a000000000000000000000000000000000000000000000000000000000815260040161066d906123ae565b60405180910390fd5b6004600360019054906101000a900460ff1660ff16036106e557600061069a610e43565b9050600081116106df576040517f08c379a00000000000000000000000000000000000000000000000000000000081526004016106d690612466565b60405180910390fd5b5061073c565b6005600360019054906101000a900460ff1660ff16111561073b576040517f08c379a0000000000000000000000000000000000000000000000000000000008152600401610732906124d2565b60405180910390fd5b5b600360019054906101000a900460ff1660ff16600581111561076157610760611cbf565b5b600360006101000a81548160ff0219169083600581111561078557610784611cbf565b5b02179055507f0a97a4ee45751e2abf3e4fc8946939630b11b371ea8ae39ccdc3056e98f5cc3f6001600360019054906101000a900460ff166107c791906124f2565b60ff1660058111156107dc576107db611cbf565b5b600360019054906101000a900460ff1660ff16600581111561080157610800611cbf565b5b60405161080f929190612527565b60405180910390a1565b6000600260003373ffffffffffffffffffffffffffffffffffffffff1673ffffffffffffffffffffffffffffffffffffffff16815260200190815260200160002060000160009054906101000a900460ff166108aa576040517f08c379a00000000000000000000000000000000000000000000000000000000081526004016108a190612015565b60405180910390fd5b6001808054905010156108f2576040517f08c379a00000000000000000000000000000000000000000000000000000000081526004016108e9906125c2565b60405180910390fd5b81600180549050811061093a576040517f08c379a0000000000000000000000000000000000000000000000000000000008152600401610931906120f3565b60405180910390fd5b6001838154811061094e5761094d612237565b5b906000526020600020906002020160010154915050919050565b6060600260003373ffffffffffffffffffffffffffffffffffffffff1673ffffffffffffffffffffffffffffffffffffffff16815260200190815260200160002060000160009054906101000a900460ff166109f9576040517f08c379a00000000000000000000000000000000000000000000000000000000081526004016109f090612015565b60405180910390fd5b600180805490501015610a41576040517f08c379a0000000000000000000000000000000000000000000000000000000008152600401610a38906125c2565b60405180910390fd5b816001805490508110610a89576040517f08c379a0000000000000000000000000000000000000000000000000000000008152600401610a80906120f3565b60405180910390fd5b60018381548110610a9d57610a9c612237565b5b90600052602060002090600202016000018054610ab990612611565b80601f0160208091040260200160405190810160405280929190818152602001828054610ae590612611565b8015610b325780601f10610b0757610100808354040283529160200191610b32565b820191906000526020600020905b815481529060010190602001808311610b1557829003601f168201915b5050505050915050919050565b610b476118cd565b610b51600061194b565b565b60006060600260003373ffffffffffffffffffffffffffffffffffffffff1673ffffffffffffffffffffffffffffffffffffffff16815260200190815260200160002060000160009054906101000a900460ff16610be6576040517f08c379a0000000000000000000000000000000000000000000000000000000008152600401610bdd90612015565b60405180910390fd5b600260008473ffffffffffffffffffffffffffffffffffffffff1673ffffffffffffffffffffffffffffffffffffffff16815260200190815260200160002060000160009054906101000a900460ff16610c75576040517f08c379a0000000000000000000000000000000000000000000000000000000008152600401610c6c906126b4565b60405180910390fd5b600260008473ffffffffffffffffffffffffffffffffffffffff1673ffffffffffffffffffffffffffffffffffffffff16815260200190815260200160002060000160019054906101000a900460ff16610d04576040517f08c379a0000000000000000000000000000000000000000000000000000000008152600401610cfb90612746565b60405180910390fd5b600260008473ffffffffffffffffffffffffffffffffffffffff1673ffffffffffffffffffffffffffffffffffffffff168152602001908152602001600020600101546001600260008673ffffffffffffffffffffffffffffffffffffffff1673ffffffffffffffffffffffffffffffffffffffff1681526020019081526020016000206001015481548110610d9d57610d9c612237565b5b9060005260206000209060020201600001808054610dba90612611565b80601f0160208091040260200160405190810160405280929190818152602001828054610de690612611565b8015610e335780601f10610e0857610100808354040283529160200191610e33565b820191906000526020600020905b815481529060010190602001808311610e1657829003601f168201915b5050505050905091509150915091565b6000600260003373ffffffffffffffffffffffffffffffffffffffff1673ffffffffffffffffffffffffffffffffffffffff16815260200190815260200160002060000160009054906101000a900460ff16610ed4576040517f08c379a0000000000000000000000000000000000000000000000000000000008152600401610ecb90612015565b60405180910390fd5b60036005811115610ee857610ee7611cbf565b5b600360009054906101000a900460ff166005811115610f0a57610f09611cbf565b5b14610f4a576040517f08c379a0000000000000000000000000000000000000000000000000000000008152600401610f4190612185565b60405180910390fd5b600080600090505b60018080549050610f639190612766565b8111610faf5760018181548110610f7d57610f7c612237565b5b90600052602060002090600202016001015482610f9a919061279a565b91508080610fa790612295565b915050610f52565b508091505090565b60008060009054906101000a900473ffffffffffffffffffffffffffffffffffffffff16905090565b600060046005811115610ff657610ff5611cbf565b5b600360009054906101000a900460ff16600581111561101857611017611cbf565b5b1015611059576040517f08c379a000000000000000000000000000000000000000000000000000000000815260040161105090612840565b60405180910390fd5b600080606060005b600180805490506110729190612766565b8111611194576001818154811061108c5761108b612237565b5b90600052602060002090600202016001015484101561118157600181815481106110b9576110b8612237565b5b9060005260206000209060020201600101549350809250600181815481106110e4576110e3612237565b5b9060005260206000209060020201600001805461110090612611565b80601f016020809104026020016040519081016040528092919081815260200182805461112c90612611565b80156111795780601f1061114e57610100808354040283529160200191611179565b820191906000526020600020905b81548152906001019060200180831161115c57829003601f168201915b505050505091505b808061118c90612295565b915050611061565b5081935050505090565b60026020528060005260406000206000915090508060000160009054906101000a900460ff16908060000160019054906101000a900460ff16908060010154908060020154905084565b6111f06118cd565b6000600581111561120457611203611cbf565b5b600360009054906101000a900460ff16600581111561122657611225611cbf565b5b14611266576040517f08c379a000000000000000000000000000000000000000000000000000000000815260040161125d906128f8565b60405180910390fd5b600260008273ffffffffffffffffffffffffffffffffffffffff1673ffffffffffffffffffffffffffffffffffffffff16815260200190815260200160002060000160009054906101000a900460ff16156112f6576040517f08c379a00000000000000000000000000000000000000000000000000000000081526004016112ed9061298a565b60405180910390fd5b6001600260008373ffffffffffffffffffffffffffffffffffffffff1673ffffffffffffffffffffffffffffffffffffffff16815260200190815260200160002060000160006101000a81548160ff0219169083151502179055507fb6be2187d059cc2a55fe29e0e503b566e1e0f8c8780096e185429350acffd3dd816040516113809190611c44565b60405180910390a150565b600360009054906101000a900460ff1681565b6060600260003373ffffffffffffffffffffffffffffffffffffffff1673ffffffffffffffffffffffffffffffffffffffff16815260200190815260200160002060000160009054906101000a900460ff1661142f576040517f08c379a000000000000000000000000000000000000000000000000000000000815260040161142690612015565b60405180910390fd5b600180805490501015611477576040517f08c379a000000000000000000000000000000000000000000000000000000000815260040161146e906125c2565b60405180910390fd5b6001805480602002602001604051908101604052809291908181526020016000905b8282101561156757838290600052602060002090600202016040518060400160405290816000820180546114cc90612611565b80601f01602080910402602001604051908101604052809291908181526020018280546114f890612611565b80156115455780601f1061151a57610100808354040283529160200191611545565b820191906000526020600020905b81548152906001019060200180831161152857829003601f168201915b5050505050815260200160018201548152505081526020019060010190611499565b50505050905090565b600260003373ffffffffffffffffffffffffffffffffffffffff1673ffffffffffffffffffffffffffffffffffffffff16815260200190815260200160002060000160009054906101000a900460ff166115ff576040517f08c379a00000000000000000000000000000000000000000000000000000000081526004016115f690612015565b60405180910390fd5b6000600390506001600581111561161957611618611cbf565b5b600360009054906101000a900460ff16600581111561163b5761163a611cbf565b5b1461167b576040517f08c379a000000000000000000000000000000000000000000000000000000000815260040161167290612a1c565b60405180910390fd5b8060ff16600260003373ffffffffffffffffffffffffffffffffffffffff1673ffffffffffffffffffffffffffffffffffffffff1681526020019081526020016000206002015410611702576040517f08c379a00000000000000000000000000000000000000000000000000000000081526004016116f990612aae565b60405180910390fd5b61170a611a17565b83838080601f016020809104026020016040519081016040528093929190818152602001838380828437600081840152601f19601f820116905080830192505050505050508160000181905250600181908060018154018082558091505060019003906000526020600020906002020160009091909190915060008201518160000190816117989190612ca9565b50602082015181600101555050600260003373ffffffffffffffffffffffffffffffffffffffff1673ffffffffffffffffffffffffffffffffffffffff16815260200190815260200160002060020160008154809291906117f890612295565b91905055507f92e393e9b54e2f801d3ea4beb0c5e71a21cc34a5d34b77d0fb8a3aa1650dc18f6001808054905061182f9190612766565b60405161183c9190611aad565b60405180910390a150505050565b6118526118cd565b600073ffffffffffffffffffffffffffffffffffffffff168173ffffffffffffffffffffffffffffffffffffffff16036118c1576040517f08c379a00000000000000000000000000000000000000000000000000000000081526004016118b890612ded565b60405180910390fd5b6118ca8161194b565b50565b6118d5611a0f565b73ffffffffffffffffffffffffffffffffffffffff166118f3610fb7565b73ffffffffffffffffffffffffffffffffffffffff1614611949576040517f08c379a000000000000000000000000000000000000000000000000000000000815260040161194090612e59565b60405180910390fd5b565b60008060009054906101000a900473ffffffffffffffffffffffffffffffffffffffff169050816000806101000a81548173ffffffffffffffffffffffffffffffffffffffff021916908373ffffffffffffffffffffffffffffffffffffffff1602179055508173ffffffffffffffffffffffffffffffffffffffff168173ffffffffffffffffffffffffffffffffffffffff167f8be0079c531659141344cd1fd0a4f28419497f9722a3daafe3b4186f6b6457e060405160405180910390a35050565b600033905090565b604051806040016040528060608152602001600081525090565b600080fd5b600080fd5b6000819050919050565b611a4e81611a3b565b8114611a5957600080fd5b50565b600081359050611a6b81611a45565b92915050565b600060208284031215611a8757611a86611a31565b5b6000611a9584828501611a5c565b91505092915050565b611aa781611a3b565b82525050565b6000602082019050611ac26000830184611a9e565b92915050565b600081519050919050565b600082825260208201905092915050565b60005b83811015611b02578082015181840152602081019050611ae7565b60008484015250505050565b6000601f19601f8301169050919050565b6000611b2a82611ac8565b611b348185611ad3565b9350611b44818560208601611ae4565b611b4d81611b0e565b840191505092915050565b60006020820190508181036000830152611b728184611b1f565b905092915050565b600073ffffffffffffffffffffffffffffffffffffffff82169050919050565b6000611ba582611b7a565b9050919050565b611bb581611b9a565b8114611bc057600080fd5b50565b600081359050611bd281611bac565b92915050565b600060208284031215611bee57611bed611a31565b5b6000611bfc84828501611bc3565b91505092915050565b6000604082019050611c1a6000830185611a9e565b8181036020830152611c2c8184611b1f565b90509392505050565b611c3e81611b9a565b82525050565b6000602082019050611c596000830184611c35565b92915050565b60008115159050919050565b611c7481611c5f565b82525050565b6000608082019050611c8f6000830187611c6b565b611c9c6020830186611c6b565b611ca96040830185611a9e565b611cb66060830184611a9e565b95945050505050565b7f4e487b7100000000000000000000000000000000000000000000000000000000600052602160045260246000fd5b60068110611cff57611cfe611cbf565b5b50565b6000819050611d1082611cee565b919050565b6000611d2082611d02565b9050919050565b611d3081611d15565b82525050565b6000602082019050611d4b6000830184611d27565b92915050565b600081519050919050565b600082825260208201905092915050565b6000819050602082019050919050565b600082825260208201905092915050565b6000611d9982611ac8565b611da38185611d7d565b9350611db3818560208601611ae4565b611dbc81611b0e565b840191505092915050565b611dd081611a3b565b82525050565b60006040830160008301518482036000860152611df38282611d8e565b9150506020830151611e086020860182611dc7565b508091505092915050565b6000611e1f8383611dd6565b905092915050565b6000602082019050919050565b6000611e3f82611d51565b611e498185611d5c565b935083602082028501611e5b85611d6d565b8060005b85811015611e975784840389528151611e788582611e13565b9450611e8383611e27565b925060208a01995050600181019050611e5f565b50829750879550505050505092915050565b60006020820190508181036000830152611ec38184611e34565b905092915050565b600080fd5b600080fd5b600080fd5b60008083601f840112611ef057611eef611ecb565b5b8235905067ffffffffffffffff811115611f0d57611f0c611ed0565b5b602083019150836001820283011115611f2957611f28611ed5565b5b9250929050565b60008060208385031215611f4757611f46611a31565b5b600083013567ffffffffffffffff811115611f6557611f64611a36565b5b611f7185828601611eda565b92509250509250929050565b7f566f7573206e27c3aa74657320706173206175746f726973c3a92c2063656c6160008201527f206ec3a963657373697465206427c3aa74726520737572206c6973746520626c60208201527f616e636865000000000000000000000000000000000000000000000000000000604082015250565b6000611fff604583611ad3565b915061200a82611f7d565b606082019050919050565b6000602082019050818103600083015261202e81611ff2565b9050919050565b7f4c65206e756dc3a9726f207072c3a9636973c3a9206e6520636f72726573706f60008201527f6e6420c3a020617563756e652070726f706f736974696f6e2e20566575696c6c60208201527f657a2072c3a96974c3a9726572206176656320756e206e756dc3a9726f20766160408201527f6c69646500000000000000000000000000000000000000000000000000000000606082015250565b60006120dd606483611ad3565b91506120e882612035565b608082019050919050565b6000602082019050818103600083015261210c816120d0565b9050919050565b7f4c612073657373696f6e20646520766f7465206e276573742070617320656e6360008201527f6f7265206f757665727465000000000000000000000000000000000000000000602082015250565b600061216f602b83611ad3565b915061217a82612113565b604082019050919050565b6000602082019050818103600083015261219e81612162565b9050919050565b7f566f7573206176657a2064c3a96ac3a020766f74c3a920706f757220766f747260008201527f652070726f706f736974696f6e207072c3a966c3a972c3a96520210000000000602082015250565b6000612201603b83611ad3565b915061220c826121a5565b604082019050919050565b60006020820190508181036000830152612230816121f4565b9050919050565b7f4e487b7100000000000000000000000000000000000000000000000000000000600052603260045260246000fd5b7f4e487b7100000000000000000000000000000000000000000000000000000000600052601160045260246000fd5b60006122a082611a3b565b91507fffffffffffffffffffffffffffffffffffffffffffffffffffffffffffffffff82036122d2576122d1612266565b5b600182019050919050565b60006040820190506122f26000830185611c35565b6122ff6020830184611a9e565b9392505050565b600060ff82169050919050565b600061231e82612306565b915060ff820361233157612330612266565b5b600182019050919050565b7f496c206e277920612070617320617373657a2064652070726f706f736974696f60008201527f6e732e204d696e696d756d20726571756973203a203200000000000000000000602082015250565b6000612398603683611ad3565b91506123a38261233c565b604082019050919050565b600060208201905081810360008301526123c78161238b565b9050919050565b7f496c206e276573742070617320706f737369626c6520646520636cc3b474757260008201527f6572206c612073657373696f6e20646520766f7465203a20617563756e20766f60208201527f7465206e276120c3a974c3a9207265c3a7750000000000000000000000000000604082015250565b6000612450605283611ad3565b915061245b826123ce565b606082019050919050565b6000602082019050818103600083015261247f81612443565b9050919050565b7f4c612073657373696f6e206573742064c3a96ac3a0207465726d696ec3a96500600082015250565b60006124bc601f83611ad3565b91506124c782612486565b602082019050919050565b600060208201905081810360008301526124eb816124af565b9050919050565b60006124fd82612306565b915061250883612306565b9250828203905060ff81111561252157612520612266565b5b92915050565b600060408201905061253c6000830185611d27565b6125496020830184611d27565b9392505050565b7f496c206e2779206120746f756a6f757273207061732064652070726f706f736960008201527f74696f6e20656e72656769737472c3a965000000000000000000000000000000602082015250565b60006125ac603183611ad3565b91506125b782612550565b604082019050919050565b600060208201905081810360008301526125db8161259f565b9050919050565b7f4e487b7100000000000000000000000000000000000000000000000000000000600052602260045260246000fd5b6000600282049050600182168061262957607f821691505b60208210810361263c5761263b6125e2565b5b50919050565b7f43657420c3a96c656374657572206e27612070617320707520656e726567697360008201527f7472657220646520766f74650000000000000000000000000000000000000000602082015250565b600061269e602c83611ad3565b91506126a982612642565b604082019050919050565b600060208201905081810360008301526126cd81612691565b9050919050565b7f43657420c3a96c656374657572206e27612070617320656e72656769737472c360008201527fa920646520766f74650000000000000000000000000000000000000000000000602082015250565b6000612730602983611ad3565b915061273b826126d4565b604082019050919050565b6000602082019050818103600083015261275f81612723565b9050919050565b600061277182611a3b565b915061277c83611a3b565b925082820390508181111561279457612793612266565b5b92915050565b60006127a582611a3b565b91506127b083611a3b565b92508282019050808211156127c8576127c7612266565b5b92915050565b7f496c206661757420617474656e64726520717565206c657320766f746573207360008201527f6f69656e7420636f6d70746162696c6973c3a9732e0000000000000000000000602082015250565b600061282a603583611ad3565b9150612835826127ce565b604082019050919050565b600060208201905081810360008301526128598161281d565b9050919050565b7f496c206e2765737420706c757320706f737369626c65206427656e726567697360008201527f74726572206427c3a96c6563746575727320737572206c6973746520626c616e60208201527f6368650000000000000000000000000000000000000000000000000000000000604082015250565b60006128e2604383611ad3565b91506128ed82612860565b606082019050919050565b60006020820190508181036000830152612911816128d5565b9050919050565b7f4c2761647265737365206573742064c3a96ac3a020737572206c69737465206260008201527f6c616e6368650000000000000000000000000000000000000000000000000000602082015250565b6000612974602683611ad3565b915061297f82612918565b604082019050919050565b600060208201905081810360008301526129a381612967565b9050919050565b7f4c612073657373696f6e206427656e72656769737472656d656e74206465732060008201527f70726f706f736974696f6e73206e2765737420706173206f7576657274650000602082015250565b6000612a06603e83611ad3565b9150612a11826129aa565b604082019050919050565b60006020820190508181036000830152612a35816129f9565b9050919050565b7f566f7573206176657a2064c3a96ac3a020736f756d697320766f747265206d6160008201527f78696d756d2064652070726f706f736974696f6e206175746f726973c3a90000602082015250565b6000612a98603e83611ad3565b9150612aa382612a3c565b604082019050919050565b60006020820190508181036000830152612ac781612a8b565b9050919050565b7f4e487b7100000000000000000000000000000000000000000000000000000000600052604160045260246000fd5b60008190508160005260206000209050919050565b60006020601f8301049050919050565b600082821b905092915050565b600060088302612b5f7fffffffffffffffffffffffffffffffffffffffffffffffffffffffffffffffff82612b22565b612b698683612b22565b95508019841693508086168417925050509392505050565b6000819050919050565b6000612ba6612ba1612b9c84611a3b565b612b81565b611a3b565b9050919050565b6000819050919050565b612bc083612b8b565b612bd4612bcc82612bad565b848454612b2f565b825550505050565b600090565b612be9612bdc565b612bf4818484612bb7565b505050565b5b81811015612c1857612c0d600082612be1565b600181019050612bfa565b5050565b601f821115612c5d57612c2e81612afd565b612c3784612b12565b81016020851015612c46578190505b612c5a612c5285612b12565b830182612bf9565b50505b505050565b600082821c905092915050565b6000612c8060001984600802612c62565b1980831691505092915050565b6000612c998383612c6f565b9150826002028217905092915050565b612cb282611ac8565b67ffffffffffffffff811115612ccb57612cca612ace565b5b612cd58254612611565b612ce0828285612c1c565b600060209050601f831160018114612d135760008415612d01578287015190505b612d0b8582612c8d565b865550612d73565b601f198416612d2186612afd565b60005b82811015612d4957848901518255600182019150602085019450602081019050612d24565b86831015612d665784890151612d62601f891682612c6f565b8355505b6001600288020188555050505b505050505050565b7f4f776e61626c653a206e6577206f776e657220697320746865207a65726f206160008201527f6464726573730000000000000000000000000000000000000000000000000000602082015250565b6000612dd7602683611ad3565b9150612de282612d7b565b604082019050919050565b60006020820190508181036000830152612e0681612dca565b9050919050565b7f4f776e61626c653a2063616c6c6572206973206e6f7420746865206f776e6572600082015250565b6000612e43602083611ad3565b9150612e4e82612e0d565b602082019050919050565b60006020820190508181036000830152612e7281612e36565b905091905056fea2646970667358221220a3da739f7f8dbb9f6f349e47fc540a4a33ca8e8d28e7eea0e76b8d89cddebfc864736f6c63430008110033",
  "immutableReferences": {},
  "source": "// SPDX-License-Identifier: GPL-3.0\npragma solidity 0.8.17; \nimport \"../node_modules/@openzeppelin/contracts/access/Ownable.sol\";\n\n/// @title Voting Decentralized Application \n/// @author Gven Gr\n/// @notice You can use this contract for only the most basic simulation\n/// @dev All function calls are currently implemented without side effects\n\ncontract Voting is Ownable {\n\n    /* ----- VARIABLES ----- */\n\n    /// @custom:Voter Struct for Voter: contains all the informations on a voter\n    struct Voter {\n        bool isRegistered;\n        bool hasVoted;\n        uint votedProposalId;\n        /// @custom:sentProposal : To prevent DOS Gas Limit, the number of sent proposal by the voter is registered to limit it \n        uint sentProposal; \n    }\n\n    /// @custom:Proposal Struct for proposal: contains a description and vote counts \n    struct Proposal {\n        string description;\n        uint voteCount;\n    }   \n\n    /// @notice Array of variable with a Proposal struct, stores the proposals\n    Proposal[] proposals; \n    \n    /// @custom:whitelist Mapping which for each input returns a Voter struct\n    mapping (address => Voter) public whitelist; \n\n    /// @custom:WorkFlowStatus : Enumeration of the different status of the voting session\n    enum WorkflowStatus {\n        RegisteringVoters,\n        ProposalsRegistrationStarted,\n        ProposalsRegistrationEnded,\n        VotingSessionStarted,\n        VotingSessionEnded,\n        VotesTallied\n    }\n\n    /// @notice State variable containing differents possibles status\n    WorkflowStatus public state; \n\n    /// @notice State variable which registers the index of the current status\n    uint8 statusValue; \n\n    /* ----- EVENTS ----- */ \n\n    /// @notice Registers the wallet address of added voter\n    /// @param voterAddress Wallet address of added voter\n    event VoterRegistered(address voterAddress); \n\n    /// @notice Registers the previous status of the work flow and the new one\n    /// @param previousStatus Previous status of the workflow\n    /// @param newStatus New status of the workflow\n    event WorkflowStatusChange(WorkflowStatus previousStatus, WorkflowStatus newStatus);\n    \n    /// @notice Registers the Id of each proposal added\n    /// @param proposalId Index of the proposal in the array\n    event ProposalRegistered(uint proposalId);\n    \n    /// @notice Registers a event when a voter votes for a proposal \n    /// @param voter Wallet address of the voter\n    /// @param proposalId Index of the proposal voted by the voter\n    event Voted (address voter, uint proposalId);\n\n\n    /* ----- CONSTRUCTOR -----*/\n\n    /// @custom:constructor Allows directly the creator of the contract as a voter\n    constructor() {\n        whitelist[msg.sender].isRegistered = true; \n    }\n\n    /* ----- MODIFIERS ----- */ \n\n    /// @custom:modifier : Controls if the call of the fonction is done by a authorized voter\n    modifier isWhiteListed() {\n        require(whitelist[msg.sender].isRegistered, unicode\"Vous n'tes pas autoris, cela ncessite d'tre sur liste blanche\");\n        _; \n    }\n\n    /// @custom:modifier : Controls if there is proposals registered\n    modifier proposalsAreRegistered() {\n        require(proposals.length >= 1, unicode\"Il n'y a toujours pas de proposition enregistre\");\n        _; \n    }\n\n    /// @custom:modifier : Controls if the proposal id specified refers to an existing proposal\n    modifier isIndexExisting(uint _proposalId) {\n        require (_proposalId < proposals.length, unicode\"Le numro prcis ne correspond  aucune proposition. Veuillez ritrer avec un numro valide\");\n        _; \n    }\n\n    /// @custom:modifier : Controls if the voting session started\n    modifier isVotingStarted() {\n        require(state == WorkflowStatus.VotingSessionStarted, \"La session de vote n'est pas encore ouverte\");\n        _;\n    }\n\n\n    /* ----- FUNCTIONS ----- */\n    /*    Functions reserved to the administrator    */ \n\n    /// @notice Allows the owner of the contract to add voters to the white list, via their ethereum address\n    /// @dev Changes the bool hasVoted of the address to true\n    /// @param _address Ethereum wallet address of the voter to authorize \n    function authorize(address _address) external onlyOwner {\n        require (state == WorkflowStatus.RegisteringVoters, unicode\"Il n'est plus possible d'enregistrer d'lecteurs sur liste blanche\" ); \n        require (!whitelist[_address].isRegistered, unicode\"L'adresse est dj sur liste blanche\");\n\n        whitelist[_address].isRegistered = true; \n        emit VoterRegistered(_address); \n    }\n\n    /// @notice Change the current status of the workflow\n    /// @dev Only the owner can call this function \n    /// @dev At each call, the enum state is incremented and the statusValue too \n    /// @dev Can't close the proposal registration session if there is less than 2 proposals\n    /// @dev Can't close the voting session if there is no vote registered\n    function changeStatus() external onlyOwner {\n\n        statusValue++; \n\n        if (statusValue == 2 && proposals.length < 2 ) {\n            revert(\"Il n'y a pas assez de propositions. Minimum requis : 2\");\n        }\n        else if (statusValue == 4) {\n            uint totalOfVotes; \n            totalOfVotes = getTotalOfVotes(); \n            require(totalOfVotes > 0, unicode\"Il n'est pas possible de clturer la session de vote : aucun vote n'a t reu\");  \n        }  else if (statusValue > 5) {\n            revert (unicode\"La session est dj termine\");\n        }\n\n        state = WorkflowStatus(statusValue); \n        emit WorkflowStatusChange(WorkflowStatus(statusValue - 1), WorkflowStatus(statusValue)); \n    } \n\n    /*    Functions of proposals & voting     */ \n  \n    /// @notice Register a new proposal from a voter\n    /// @dev Only voters can call this function  \n    /// @dev The maximum of proposal by voter is defined with maximumProposal\n    /// @param _proposal Description of the proposal \n    function sendProposals(string calldata _proposal) external isWhiteListed {\n\n        uint8 maximumProposal = 3;\n\n        require (state == WorkflowStatus.ProposalsRegistrationStarted, \"La session d'enregistrement des propositions n'est pas ouverte\" ); \n        require (whitelist[msg.sender].sentProposal < maximumProposal, unicode\"Vous avez dj soumis votre maximum de proposition autoris\");\n        \n        Proposal memory proposal; \n        proposal.description = _proposal; \n        proposals.push(proposal); \n\n        whitelist[msg.sender].sentProposal++;\n        emit ProposalRegistered(proposals.length - 1);\n    }\n\n\n    /// @notice Register a vote for a proposal \n    /// @dev Only voters can call this function  \n    /// @dev This function can only be used one time \n    /// @param _proposalId Id of the favorite proposal\n    function voteForProposal(uint _proposalId) external isWhiteListed isIndexExisting(_proposalId) isVotingStarted {\n        require(!(whitelist[msg.sender].hasVoted), unicode\"Vous avez dj vot pour votre proposition prfre !\");\n\n        proposals[_proposalId].voteCount++; \n        whitelist[msg.sender].hasVoted = true; \n        whitelist[msg.sender].votedProposalId = _proposalId; \n        emit Voted(msg.sender, _proposalId ); \n    }\n \n\n    /*    Functions for information purposes   */ \n\n    /// @notice Returns the list of all the proposals\n    /// @dev Returns an array of struct Proposal\n    /// @return Proposal An array of all the proposals\n    function getAllProposals() external view isWhiteListed proposalsAreRegistered returns(Proposal[] memory){\n        return proposals; \n    }\n\n    /// @notice Returns the description of a proposal by his index\n    /// @param _proposalId Id of the desired proposal\n    /// @return string The description of the proposal\n    function getProposalByIndex(uint _proposalId) external view isWhiteListed proposalsAreRegistered isIndexExisting(_proposalId) returns(string memory) {\n        return proposals[_proposalId].description;\n    }\n\n\n    /// @notice Returns the vote count of a specified proposal\n    /// @param _proposalId Id of the desired proposal\n    /// @return uint The vote count of the proposal\n    function getVoteCountByProposal(uint _proposalId) external view isWhiteListed proposalsAreRegistered isIndexExisting(_proposalId) returns(uint) {\n        return proposals[_proposalId].voteCount;\n    }\n\n    /// @notice Returns the amount of votes registered\n    /// @return uint Total of votes registered\n    function getTotalOfVotes() public view isWhiteListed isVotingStarted returns(uint) {\n        uint totalOfVotes;  \n\n        for(uint i = 0; i <= proposals.length - 1 ; i++) {\n            totalOfVotes += proposals[i].voteCount; \n        }   \n        return totalOfVotes; \n    }\n\n    /// @notice Return the winning proposal\n    /// @dev In case of egality, it's the oldest proposal which wins\n    /// @return winningProposalId The Id of the winning proposal \n    function getWinner() public view returns(uint) {  \n        require(state >= WorkflowStatus.VotingSessionEnded, unicode\"Il faut attendre que les votes soient comptabiliss.\");\n\n        uint biggestCount; \n        uint winningProposalId; \n        string memory winningProposal; \n\n        for(uint i = 0; i <= proposals.length - 1 ; i++) {\n            if (biggestCount < proposals[i].voteCount) {\n               biggestCount = proposals[i].voteCount;\n               winningProposalId = i;\n               winningProposal = proposals[i].description; \n           }\n        }   \n        return (winningProposalId) ;\n    }\n\n    /// @notice Allows to know for which proposal on voter has voted\n    /// @param _address Ethereum address of the voter desired \n    /// @return votedProposalId The proposal for which the voter has voted  \n    function hasVotedFor(address _address) external view isWhiteListed returns(uint, string memory) {\n        require(whitelist[_address].isRegistered, unicode\"Cet lecteur n'a pas pu enregistrer de vote\");\n        require(whitelist[_address].hasVoted, unicode\"Cet lecteur n'a pas enregistr de vote\");\n        return (whitelist[_address].votedProposalId, proposals[whitelist[_address].votedProposalId].description ); \n    }\n}",
  "sourcePath": "/home/hutchinson/VotingDApp/truffle/contracts/Voting.sol",
  "compiler": {
    "name": "solc",
    "version": "0.8.17+commit.8df45f5f.Emscripten.clang"
  },
  "schemaVersion": "3.4.10",
  "updatedAt": "2022-11-18T20:57:48.675Z",
  "networkType": "ethereum",
  "devdoc": {
    "author": "Gven Gr",
    "details": "All function calls are currently implemented without side effects",
    "events": {
      "ProposalRegistered(uint256)": {
        "params": {
          "proposalId": "Index of the proposal in the array"
        }
      },
      "Voted(address,uint256)": {
        "params": {
          "proposalId": "Index of the proposal voted by the voter",
          "voter": "Wallet address of the voter"
        }
      },
      "VoterRegistered(address)": {
        "params": {
          "voterAddress": "Wallet address of added voter"
        }
      },
      "WorkflowStatusChange(uint8,uint8)": {
        "params": {
          "newStatus": "New status of the workflow",
          "previousStatus": "Previous status of the workflow"
        }
      }
    },
    "kind": "dev",
    "methods": {
      "authorize(address)": {
        "details": "Changes the bool hasVoted of the address to true",
        "params": {
          "_address": "Ethereum wallet address of the voter to authorize "
        }
      },
      "changeStatus()": {
        "details": "Only the owner can call this function At each call, the enum state is incremented and the statusValue too Can't close the proposal registration session if there is less than 2 proposalsCan't close the voting session if there is no vote registered"
      },
      "constructor": {
        "custom:constructor": "Allows directly the creator of the contract as a voter"
      },
      "getAllProposals()": {
        "details": "Returns an array of struct Proposal",
        "returns": {
          "_0": "Proposal An array of all the proposals"
        }
      },
      "getProposalByIndex(uint256)": {
        "params": {
          "_proposalId": "Id of the desired proposal"
        },
        "returns": {
          "_0": "string The description of the proposal"
        }
      },
      "getTotalOfVotes()": {
        "returns": {
          "_0": "uint Total of votes registered"
        }
      },
      "getVoteCountByProposal(uint256)": {
        "params": {
          "_proposalId": "Id of the desired proposal"
        },
        "returns": {
          "_0": "uint The vote count of the proposal"
        }
      },
      "getWinner()": {
        "details": "In case of egality, it's the oldest proposal which wins",
        "returns": {
          "_0": "winningProposalId The Id of the winning proposal "
        }
      },
      "hasVotedFor(address)": {
        "params": {
          "_address": "Ethereum address of the voter desired "
        },
        "returns": {
          "_0": "votedProposalId The proposal for which the voter has voted  "
        }
      },
      "owner()": {
        "details": "Returns the address of the current owner."
      },
      "renounceOwnership()": {
        "details": "Leaves the contract without owner. It will not be possible to call `onlyOwner` functions anymore. Can only be called by the current owner. NOTE: Renouncing ownership will leave the contract without an owner, thereby removing any functionality that is only available to the owner."
      },
      "sendProposals(string)": {
        "details": "Only voters can call this function  The maximum of proposal by voter is defined with maximumProposal",
        "params": {
          "_proposal": "Description of the proposal "
        }
      },
      "transferOwnership(address)": {
        "details": "Transfers ownership of the contract to a new account (`newOwner`). Can only be called by the current owner."
      },
      "voteForProposal(uint256)": {
        "details": "Only voters can call this function  This function can only be used one time ",
        "params": {
          "_proposalId": "Id of the favorite proposal"
        }
      }
    },
    "stateVariables": {
      "whitelist": {
        "custom:whitelist": "Mapping which for each input returns a Voter struct"
      }
    },
    "title": "Voting Decentralized Application ",
    "version": 1
  },
  "userdoc": {
    "events": {
      "ProposalRegistered(uint256)": {
        "notice": "Registers the Id of each proposal added"
      },
      "Voted(address,uint256)": {
        "notice": "Registers a event when a voter votes for a proposal "
      },
      "VoterRegistered(address)": {
        "notice": "Registers the wallet address of added voter"
      },
      "WorkflowStatusChange(uint8,uint8)": {
        "notice": "Registers the previous status of the work flow and the new one"
      }
    },
    "kind": "user",
    "methods": {
      "authorize(address)": {
        "notice": "Allows the owner of the contract to add voters to the white list, via their ethereum address"
      },
      "changeStatus()": {
        "notice": "Change the current status of the workflow"
      },
      "getAllProposals()": {
        "notice": "Returns the list of all the proposals"
      },
      "getProposalByIndex(uint256)": {
        "notice": "Returns the description of a proposal by his index"
      },
      "getTotalOfVotes()": {
        "notice": "Returns the amount of votes registered"
      },
      "getVoteCountByProposal(uint256)": {
        "notice": "Returns the vote count of a specified proposal"
      },
      "getWinner()": {
        "notice": "Return the winning proposal"
      },
      "hasVotedFor(address)": {
        "notice": "Allows to know for which proposal on voter has voted"
      },
      "sendProposals(string)": {
        "notice": "Register a new proposal from a voter"
      },
      "state()": {
        "notice": "State variable containing differents possibles status"
      },
      "voteForProposal(uint256)": {
        "notice": "Register a vote for a proposal "
      }
    },
    "notice": "You can use this contract for only the most basic simulation",
    "version": 1
  }
}